{
  "address": "0xA22C982431aA2A24B139F6DE2B01FcCdd5fA8a35",
  "abi": [
    {
      "inputs": [],
      "stateMutability": "nonpayable",
      "type": "constructor"
    },
    {
      "anonymous": false,
      "inputs": [
        {
          "indexed": false,
          "internalType": "uint8",
          "name": "version",
          "type": "uint8"
        }
      ],
      "name": "Initialized",
      "type": "event"
    },
    {
      "anonymous": false,
      "inputs": [
        {
          "indexed": true,
          "internalType": "address",
          "name": "previousOwner",
          "type": "address"
        },
        {
          "indexed": true,
          "internalType": "address",
          "name": "newOwner",
          "type": "address"
        }
      ],
      "name": "OwnershipTransferred",
      "type": "event"
    },
    {
      "anonymous": false,
      "inputs": [
        {
          "indexed": false,
          "internalType": "address",
          "name": "account",
          "type": "address"
        }
      ],
      "name": "Paused",
      "type": "event"
    },
    {
      "anonymous": false,
      "inputs": [
        {
          "indexed": false,
          "internalType": "address",
          "name": "account",
          "type": "address"
        }
      ],
      "name": "Unpaused",
      "type": "event"
    },
    {
      "anonymous": false,
      "inputs": [
        {
          "indexed": false,
          "internalType": "uint256",
          "name": "miniumPayment",
          "type": "uint256"
        }
      ],
      "name": "newMiniumPayment",
      "type": "event"
    },
    {
      "anonymous": false,
      "inputs": [
        {
          "indexed": false,
          "internalType": "address",
          "name": "player",
          "type": "address"
        },
        {
          "indexed": false,
          "internalType": "uint256",
          "name": "value",
          "type": "uint256"
        }
      ],
      "name": "newPlayer",
      "type": "event"
    },
    {
      "anonymous": false,
      "inputs": [
        {
          "indexed": false,
          "internalType": "address",
          "name": "selectWinnerOwner",
          "type": "address"
        }
      ],
      "name": "newselectWinnerOwner",
      "type": "event"
    },
    {
      "anonymous": false,
      "inputs": [
        {
          "indexed": false,
          "internalType": "address",
          "name": "winner",
          "type": "address"
        },
        {
          "indexed": false,
          "internalType": "uint256",
          "name": "totalQtyWon",
          "type": "uint256"
        }
      ],
      "name": "selectedWinner",
      "type": "event"
    },
    {
      "inputs": [
        {
          "internalType": "address",
          "name": "newOwner",
          "type": "address"
        }
      ],
      "name": "changeContractOwner",
      "outputs": [],
      "stateMutability": "nonpayable",
      "type": "function"
    },
    {
      "inputs": [
        {
          "internalType": "uint256",
          "name": "_newMiniumPayment",
          "type": "uint256"
        }
      ],
      "name": "changeDefaultMiniumPayment",
      "outputs": [],
      "stateMutability": "nonpayable",
      "type": "function"
    },
    {
      "inputs": [
        {
          "internalType": "address",
          "name": "_selectWinnerOwner",
          "type": "address"
        }
      ],
      "name": "changeSelectWinnerOwner",
      "outputs": [],
      "stateMutability": "nonpayable",
      "type": "function"
    },
    {
      "inputs": [
        {
          "components": [
            {
              "components": [
                {
                  "internalType": "uint256",
                  "name": "X",
                  "type": "uint256"
                },
                {
                  "internalType": "uint256",
                  "name": "Y",
                  "type": "uint256"
                }
              ],
              "internalType": "struct Pairing.G1Point",
              "name": "a",
              "type": "tuple"
            },
            {
              "components": [
                {
                  "internalType": "uint256[2]",
                  "name": "X",
                  "type": "uint256[2]"
                },
                {
                  "internalType": "uint256[2]",
                  "name": "Y",
                  "type": "uint256[2]"
                }
              ],
              "internalType": "struct Pairing.G2Point",
              "name": "b",
              "type": "tuple"
            },
            {
              "components": [
                {
                  "internalType": "uint256",
                  "name": "X",
                  "type": "uint256"
                },
                {
                  "internalType": "uint256",
                  "name": "Y",
                  "type": "uint256"
                }
              ],
              "internalType": "struct Pairing.G1Point",
              "name": "c",
              "type": "tuple"
            }
          ],
          "internalType": "struct Verifier.Proof",
          "name": "proof",
          "type": "tuple"
        },
        {
          "internalType": "uint256[3]",
          "name": "input",
          "type": "uint256[3]"
        }
      ],
      "name": "enterLottery",
      "outputs": [],
      "stateMutability": "payable",
      "type": "function"
    },
    {
      "inputs": [],
      "name": "getBalance",
      "outputs": [
        {
          "internalType": "uint256",
          "name": "",
          "type": "uint256"
        }
      ],
      "stateMutability": "view",
      "type": "function"
    },
    {
      "inputs": [],
      "name": "getMiniumPayment",
      "outputs": [
        {
          "internalType": "uint256",
          "name": "",
          "type": "uint256"
        }
      ],
      "stateMutability": "view",
      "type": "function"
    },
    {
      "inputs": [],
      "name": "getPlayers",
      "outputs": [
        {
          "internalType": "address payable[]",
          "name": "",
          "type": "address[]"
        }
      ],
      "stateMutability": "view",
      "type": "function"
    },
    {
      "inputs": [],
      "name": "getSelectWinnerOwner",
      "outputs": [
        {
          "internalType": "address",
          "name": "",
          "type": "address"
        }
      ],
      "stateMutability": "view",
      "type": "function"
    },
    {
      "inputs": [
        {
          "internalType": "uint256",
          "name": "_miniumPayment",
          "type": "uint256"
        },
        {
          "internalType": "address",
          "name": "_selectWinnerOwner",
          "type": "address"
        }
      ],
      "name": "initialize",
      "outputs": [],
      "stateMutability": "nonpayable",
      "type": "function"
    },
    {
      "inputs": [],
      "name": "islotteryOngoing",
      "outputs": [
        {
          "internalType": "bool",
          "name": "",
          "type": "bool"
        }
      ],
      "stateMutability": "view",
      "type": "function"
    },
    {
      "inputs": [],
      "name": "miniumPayment",
      "outputs": [
        {
          "internalType": "uint256",
          "name": "",
          "type": "uint256"
        }
      ],
      "stateMutability": "view",
      "type": "function"
    },
    {
      "inputs": [],
      "name": "owner",
      "outputs": [
        {
          "internalType": "address",
          "name": "",
          "type": "address"
        }
      ],
      "stateMutability": "view",
      "type": "function"
    },
    {
      "inputs": [],
      "name": "pause",
      "outputs": [],
      "stateMutability": "nonpayable",
      "type": "function"
    },
    {
      "inputs": [],
      "name": "paused",
      "outputs": [
        {
          "internalType": "bool",
          "name": "",
          "type": "bool"
        }
      ],
      "stateMutability": "view",
      "type": "function"
    },
    {
      "inputs": [],
      "name": "player",
      "outputs": [
        {
          "internalType": "address",
          "name": "",
          "type": "address"
        }
      ],
      "stateMutability": "view",
      "type": "function"
    },
    {
      "inputs": [
        {
          "internalType": "uint256",
          "name": "",
          "type": "uint256"
        }
      ],
      "name": "players",
      "outputs": [
        {
          "internalType": "address payable",
          "name": "",
          "type": "address"
        }
      ],
      "stateMutability": "view",
      "type": "function"
    },
    {
      "inputs": [],
      "name": "renounceOwnership",
      "outputs": [],
      "stateMutability": "nonpayable",
      "type": "function"
    },
    {
      "inputs": [],
      "name": "selectWinner",
      "outputs": [],
      "stateMutability": "nonpayable",
      "type": "function"
    },
    {
      "inputs": [],
      "name": "selectWinnerOwner",
      "outputs": [
        {
          "internalType": "address",
          "name": "",
          "type": "address"
        }
      ],
      "stateMutability": "view",
      "type": "function"
    },
    {
      "inputs": [],
      "name": "totalQtyWon",
      "outputs": [
        {
          "internalType": "uint256",
          "name": "",
          "type": "uint256"
        }
      ],
      "stateMutability": "view",
      "type": "function"
    },
    {
      "inputs": [
        {
          "internalType": "address",
          "name": "newOwner",
          "type": "address"
        }
      ],
      "name": "transferOwnership",
      "outputs": [],
      "stateMutability": "nonpayable",
      "type": "function"
    },
    {
      "inputs": [],
      "name": "unpause",
      "outputs": [],
      "stateMutability": "nonpayable",
      "type": "function"
    },
    {
      "inputs": [],
      "name": "value",
      "outputs": [
        {
          "internalType": "uint256",
          "name": "",
          "type": "uint256"
        }
      ],
      "stateMutability": "view",
      "type": "function"
    },
    {
      "inputs": [
        {
          "components": [
            {
              "components": [
                {
                  "internalType": "uint256",
                  "name": "X",
                  "type": "uint256"
                },
                {
                  "internalType": "uint256",
                  "name": "Y",
                  "type": "uint256"
                }
              ],
              "internalType": "struct Pairing.G1Point",
              "name": "a",
              "type": "tuple"
            },
            {
              "components": [
                {
                  "internalType": "uint256[2]",
                  "name": "X",
                  "type": "uint256[2]"
                },
                {
                  "internalType": "uint256[2]",
                  "name": "Y",
                  "type": "uint256[2]"
                }
              ],
              "internalType": "struct Pairing.G2Point",
              "name": "b",
              "type": "tuple"
            },
            {
              "components": [
                {
                  "internalType": "uint256",
                  "name": "X",
                  "type": "uint256"
                },
                {
                  "internalType": "uint256",
                  "name": "Y",
                  "type": "uint256"
                }
              ],
              "internalType": "struct Pairing.G1Point",
              "name": "c",
              "type": "tuple"
            }
          ],
          "internalType": "struct Verifier.Proof",
          "name": "proof",
          "type": "tuple"
        },
        {
          "internalType": "uint256[3]",
          "name": "input",
          "type": "uint256[3]"
        }
      ],
      "name": "verifyTx",
      "outputs": [
        {
          "internalType": "bool",
          "name": "r",
          "type": "bool"
        }
      ],
      "stateMutability": "view",
      "type": "function"
    },
    {
      "inputs": [],
      "name": "winner",
      "outputs": [
        {
          "internalType": "address",
          "name": "",
          "type": "address"
        }
      ],
      "stateMutability": "view",
      "type": "function"
    }
  ],
  "transactionHash": "0x66195c21c036d88bfcf04b29ef490c21cbea8c251e62a7adc02faddceeb3ee6d",
  "args": [],
  "numDeployments": 1,
  "solcInputHash": "0fdb659368c3f6357ba74c0099c57d9a",
  "bytecode": "0x60806040523480156200001157600080fd5b506200001c6200002c565b620000266200002c565b620000ee565b600054610100900460ff1615620000995760405162461bcd60e51b815260206004820152602760248201527f496e697469616c697a61626c653a20636f6e747261637420697320696e697469604482015266616c697a696e6760c81b606482015260840160405180910390fd5b60005460ff9081161015620000ec576000805460ff191660ff9081179091556040519081527f7f26b83ff96e1f2b6a682f133852f6798a09c465da95921460cefb38474024989060200160405180910390a15b565b6120f280620000fe6000396000f3fe6080604052600436106101665760003560e01c80635c975abb116100d15780639d1dc0801161008a578063dfbf53ae11610064578063dfbf53ae146103d5578063e4e38090146103f5578063f2fde38b1461040b578063f71d96cb1461042b57600080fd5b80639d1dc08014610386578063ae9652fd1461039b578063da35a26f146103b557600080fd5b80635c975abb146102df5780636951893d146102f7578063715018a61461031c5780638456cb59146103315780638b5b9ccc146103465780638da5cb5b1461036857600080fd5b806333a99e041161012357806333a99e041461024c5780633ead67b5146102615780633f4ba83a146102815780633fa4f2451461029657806348db5f89146102ac57806349fbf677146102cc57600080fd5b806307762eb31461016b5780630f9c5d491461018d57806312065fe0146101c25780631211980b146101df57806314d93b5c146102165780631c8015ab14610236575b600080fd5b34801561017757600080fd5b5061018b610186366004611c8f565b61044b565b005b34801561019957600080fd5b506101ad6101a8366004611e11565b6104e2565b60405190151581526020015b60405180910390f35b3480156101ce57600080fd5b50475b6040519081526020016101b9565b3480156101eb57600080fd5b5060cc5461010090046001600160a01b03165b6040516001600160a01b0390911681526020016101b9565b34801561022257600080fd5b5061018b610231366004611ec8565b610582565b34801561024257600080fd5b506101d160d05481565b34801561025857600080fd5b5061018b61061b565b34801561026d57600080fd5b5061018b61027c366004611c8f565b6107d3565b34801561028d57600080fd5b5061018b61080d565b3480156102a257600080fd5b506101d160cf5481565b3480156102b857600080fd5b5060cd546101fe906001600160a01b031681565b61018b6102da366004611e11565b610855565b3480156102eb57600080fd5b5060975460ff166101ad565b34801561030357600080fd5b5060cc546101fe9061010090046001600160a01b031681565b34801561032857600080fd5b5061018b610a87565b34801561033d57600080fd5b5061018b610a9b565b34801561035257600080fd5b5061035b610ae8565b6040516101b99190611ee1565b34801561037457600080fd5b506033546001600160a01b03166101fe565b34801561039257600080fd5b5060cb546101d1565b3480156103a757600080fd5b5060cc546101ad9060ff1681565b3480156103c157600080fd5b5061018b6103d0366004611f2e565b610b4a565b3480156103e157600080fd5b5060ce546101fe906001600160a01b031681565b34801561040157600080fd5b506101d160cb5481565b34801561041757600080fd5b5061018b610426366004611c8f565b610c92565b34801561043757600080fd5b506101fe610446366004611ec8565b610cc9565b610453610cf3565b6001600160a01b0381166104825760405162461bcd60e51b815260040161047990611f5a565b60405180910390fd5b60cc8054610100600160a81b0319166101006001600160a01b038481168202929092179283905560405192041681527fd19a97ac2a3a7bf368d0fcb97a05863922352067674e65a1e59bc0e06dfca09b906020015b60405180910390a150565b604080516003808252608082019092526000918291906020820160608036833701905050905060005b600381101561055a5783816003811061052657610526611fa0565b602002015182828151811061053d5761053d611fa0565b60209081029190910101528061055281611fcc565b91505061050b565b506105658185610d4d565b60000361057657600191505061057c565b60009150505b92915050565b61058a610cf3565b806000036105e65760405162461bcd60e51b8152602060048201526024808201527f4e6577204d696e69756d205061796d656e742073686f756c64206265207570206044820152630746f20360e41b6064820152608401610479565b60cb8190556040518181527f5eb22d91ccf194eaee9b7840523dae1cb9b65cd0f70bb6f923dbe59fc9bfe64f906020016104d7565b60cc54339061010090046001600160a01b031681146106755760405162461bcd60e51b815260206004820152601660248201527527b7363c9039b2b632b1ba2bb4b73732b927bbb732b960511b6044820152606401610479565b60cc805460ff1916905560ca5460009061068d610ed0565b6106979190611ffb565b9050600060ca82815481106106ae576106ae611fa0565b600091825260208083209190910154604080519384529183019182905291516001600160a01b0390921692506106e79160ca9190611b0b565b506000816001600160a01b03164760405160006040518083038185875af1925050503d8060008114610735576040519150601f19603f3d011682016040523d82523d6000602084013e61073a565b606091505b505090508061077f5760405162461bcd60e51b815260206004820152601160248201527032b93937b91039b2b73234b7339021272160791b6044820152606401610479565b60cc805460ff19166001179055604080516001600160a01b03841681524760208201527fc56976101695147e6beb312e8b21eab74ee87e4f73867aa5e47c9c2ef1e1fc0d910160405180910390a150505050565b6107db610cf3565b6001600160a01b0381166108015760405162461bcd60e51b815260040161047990611f5a565b61080a81610c92565b50565b610815610cf3565b6097805460ff191690556040513381527f5db9ee0a495bf2e6ff9c91a7834c1ba4fdd244a5e8aa4e537bd38aeae4b073aa906020015b60405180910390a1565b61085d610f11565b610865610f6a565b33321461089f5760405162461bcd60e51b81526020600482015260086024820152674f6e6c7920454f4160c01b6044820152606401610479565b600034116109005760405162461bcd60e51b815260206004820152602860248201527f596f75206d7573742073656e6420457468657220746f20656e74657220746865604482015267206c6f747465727960c01b6064820152608401610479565b60cb543410156109605760405162461bcd60e51b815260206004820152602560248201527f596f75206d7573742073656e642061204d696e69756d20616d6f7574206f662060448201526422ba3432b960d91b6064820152608401610479565b60cc5460ff166109a65760405162461bcd60e51b8152602060048201526011602482015270131bdd1d195c9e481a185cc8195b991959607a1b6044820152606401610479565b6109b082826104e2565b6109fc5760405162461bcd60e51b815260206004820152601d60248201527f4d757374206265206174206c65617374203138207965617273206f6c640000006044820152606401610479565b60ca80546001810182556000919091527f42d72674974f694b5f5159593243114d38a5c39c89d6b62fee061ff523240ee10180546001600160a01b03191633908117909155604080519182523460208301527f4222113ad602ab085918ce130c46367c8d7ea76f6710b09d0d47c28a3f9598f4910160405180910390a1610a836001606555565b5050565b610a8f610cf3565b610a996000610fb0565b565b610aa3610cf3565b610aab610f6a565b6097805460ff191660011790556040513381527f62e78cea01bee320cd4e420270b5ea74000d11b0c9f74754ebdbfc544b05a2589060200161084b565b606060ca805480602002602001604051908101604052809291908181526020018280548015610b4057602002820191906000526020600020905b81546001600160a01b03168152600190910190602001808311610b22575b5050505050905090565b600054610100900460ff1615808015610b6a5750600054600160ff909116105b80610b845750303b158015610b84575060005460ff166001145b610be75760405162461bcd60e51b815260206004820152602e60248201527f496e697469616c697a61626c653a20636f6e747261637420697320616c72656160448201526d191e481a5b9a5d1a585b1a5e995960921b6064820152608401610479565b6000805460ff191660011790558015610c0a576000805461ff0019166101001790555b60cb83905560cc805460ff196001600160a01b03851661010002166001600160a81b0319909116176001179055610c3f611002565b610c47611031565b8015610c8d576000805461ff0019169055604051600181527f7f26b83ff96e1f2b6a682f133852f6798a09c465da95921460cefb38474024989060200160405180910390a15b505050565b610c9a610cf3565b6001600160a01b038116610cc05760405162461bcd60e51b815260040161047990611f5a565b61080a81610fb0565b60ca8181548110610cd957600080fd5b6000918252602090912001546001600160a01b0316905081565b6033546001600160a01b03163314610a995760405162461bcd60e51b815260206004820181905260248201527f4f776e61626c653a2063616c6c6572206973206e6f7420746865206f776e65726044820152606401610479565b60007f30644e72e131a029b85045b68181585d2833e84879b9709143e1f593f000000181610d79611060565b905080608001515185516001610d8f919061200f565b14610d9957600080fd5b604080518082019091526000808252602082018190525b8651811015610e475783878281518110610dcc57610dcc611fa0565b602002602001015110610dde57600080fd5b610e3382610e2e8560800151846001610df7919061200f565b81518110610e0757610e07611fa0565b60200260200101518a8581518110610e2157610e21611fa0565b60200260200101516114e9565b611547565b915080610e3f81611fcc565b915050610db0565b50610e70818360800151600081518110610e6357610e63611fa0565b6020026020010151611547565b9050610eb485600001518660200151610e888461159d565b8560400151610e9a8a6040015161159d565b60608801518851610eaa9061159d565b896020015161163c565b610ec4576001935050505061057c565b50600095945050505050565b600080610edd4442612027565b905080604051602001610ef291815260200190565b6040516020818303038152906040528051906020012060001c91505090565b600260655403610f635760405162461bcd60e51b815260206004820152601f60248201527f5265656e7472616e637947756172643a207265656e7472616e742063616c6c006044820152606401610479565b6002606555565b60975460ff1615610a995760405162461bcd60e51b815260206004820152601060248201526f14185d5cd8589b194e881c185d5cd95960821b6044820152606401610479565b603380546001600160a01b038381166001600160a01b0319831681179093556040519116919082907f8be0079c531659141344cd1fd0a4f28419497f9722a3daafe3b4186f6b6457e090600090a35050565b600054610100900460ff166110295760405162461bcd60e51b81526004016104799061203b565b610a996117c7565b600054610100900460ff166110585760405162461bcd60e51b81526004016104799061203b565b610a996117f7565b611068611b70565b6040805180820182527f1ac982ce7691e20d9118b5a8bc95346d092459d32dc0334f6fb27c4957b6773d81527f17f1e2736816273f3a9a2a5eb2ad10323fd2096deac193af08a1cd1e5516ba156020808301919091529083528151608080820184527f0405b8d8b18dd241267fa68d347ca93fa7ca6dfc46f7de734de9fe1b6723bab78285019081527f0f95a71946bee82eb05dec96a163b90c1ccd88a4eb1650c795a625f018e205a3606080850191909152908352845180860186527f264588eb8d7b8acd3c1689bf225a0683403dd53363b78e1042b08119a8d37e6e81527f2bb3b8c10733eaee1c991d5513123a5a65666cbe9c410c65e13f6cb69618f5b7818601528385015285840192909252835180820185527f29a12d94be3792be7265554124cb119dce7321aa2006c0afe1b673721d973ad58186019081527f2f6018f129f1a3796fe676250e86ab71c4d2f126eedc8202042fc276281c1099828501528152845180860186527f2336be20a98b0a2a289c65cc6c182c60aef86cca8346d52782809fa405b1c04d81527f1c37103a941cc58651b2bbf22af3a2372281d57ae06ad9da2352a15adc724687818601528185015285850152835190810184527f2768f23a7dbc651e017a5e2ab56f00dacac867a51837e0ed62c12a3cb5321de28185019081527f1c6811c575fbe0c678805227f77aee3fd781f90669977727691ffb9d4be0bbf5828401528152835180850185527f1e2cf72e29cbfd235f164071adbb5a2eec438372b87a06b7bb8634604220259a81527f264e12ab98ca44b6c1a787abc5877e1bffb5d5ac8c62d174f5dd759c98bc9c198185015281840152908401528151600480825260a08201909352919082015b60408051808201909152600080825260208201528152602001906001900390816112e357505060808201908152604080518082019091527f22875c0b5c4079781df56f5e580a2a7d9070f54d08ccf450399b4bd8172b3d8b81527f17e0fcee47ba020372460f5223288da71ad03149057e81c88b07c078ceab305d60208201529051805160009061137657611376611fa0565b602002602001018190525060405180604001604052807f0917be5cbaf727bc4452044f833437362ab1baf3bf3e7a9cf7161dc520f2f13481526020017f09c027176cf0837ebeb1dac62f378e79e3b020d39bc676780fe2a016c5c3c28981525081608001516001815181106113ed576113ed611fa0565b602002602001018190525060405180604001604052807f2895a82fbed1926a4226feac3b7c6e7b8b0258bd9adcd6debee87aa75a9d7cfc81526020017f137482c1dc836dd03cfb59b8d653d62f69dd82cf54a60ea74e146c68c5609a94815250816080015160028151811061146457611464611fa0565b602002602001018190525060405180604001604052807f0b490104a28deaba5aeb30e266c1d1db3e71150db130c25e3b2326637a3f704581526020017f200dc50b8e2c90631113b251573463fdf8d180379d16b8d65f4322c001601f5b81525081608001516003815181106114db576114db611fa0565b602002602001018190525090565b6040805180820190915260008082526020820152611505611bc1565b835181526020808501519082015260408101839052600060608360808460076107d05a03fa9050808061153457fe5b508061153f57600080fd5b505092915050565b6040805180820190915260008082526020820152611563611bdf565b8351815260208085015181830152835160408301528301516060808301919091526000908360c08460066107d05a03fa9050808061153457fe5b604080518082019091526000808252602082015281517f30644e72e131a029b85045b68181585d97816a916871ca8d3c208c16d87cfd47901580156115e457506020830151155b156116045750506040805180820190915260008082526020820152919050565b6040518060400160405280846000015181526020018285602001516116299190611ffb565b6116339084612086565b90529392505050565b60408051600480825260a08201909252600091829190816020015b604080518082019091526000808252602082015281526020019060019003908161165757505060408051600480825260a0820190925291925060009190602082015b6116a1611bfd565b8152602001906001900390816116995790505090508a826000815181106116ca576116ca611fa0565b602002602001018190525088826001815181106116e9576116e9611fa0565b6020026020010181905250868260028151811061170857611708611fa0565b6020026020010181905250848260038151811061172757611727611fa0565b6020026020010181905250898160008151811061174657611746611fa0565b6020026020010181905250878160018151811061176557611765611fa0565b6020026020010181905250858160028151811061178457611784611fa0565b602002602001018190525083816003815181106117a3576117a3611fa0565b60200260200101819052506117b8828261182a565b9b9a5050505050505050505050565b600054610100900460ff166117ee5760405162461bcd60e51b81526004016104799061203b565b610a9933610fb0565b600054610100900460ff1661181e5760405162461bcd60e51b81526004016104799061203b565b6097805460ff19169055565b6000815183511461183a57600080fd5b8251600061184982600661209d565b905060008167ffffffffffffffff81111561186657611866611cb1565b60405190808252806020026020018201604052801561188f578160200160208202803683370190505b50905060005b83811015611aca578681815181106118af576118af611fa0565b602002602001015160000151828260066118c9919061209d565b6118d490600061200f565b815181106118e4576118e4611fa0565b60200260200101818152505086818151811061190257611902611fa0565b6020026020010151602001518282600661191c919061209d565b61192790600161200f565b8151811061193757611937611fa0565b60200260200101818152505085818151811061195557611955611fa0565b6020908102919091018101515101518261197083600661209d565b61197b90600261200f565b8151811061198b5761198b611fa0565b6020026020010181815250508581815181106119a9576119a9611fa0565b60209081029190910101515151826119c283600661209d565b6119cd90600361200f565b815181106119dd576119dd611fa0565b6020026020010181815250508581815181106119fb576119fb611fa0565b602002602001015160200151600160028110611a1957611a19611fa0565b602002015182611a2a83600661209d565b611a3590600461200f565b81518110611a4557611a45611fa0565b602002602001018181525050858181518110611a6357611a63611fa0565b602002602001015160200151600060028110611a8157611a81611fa0565b602002015182611a9283600661209d565b611a9d90600561200f565b81518110611aad57611aad611fa0565b602090810291909101015280611ac281611fcc565b915050611895565b50611ad3611c22565b6000602082602086026020860160086107d05a03fa90508080611af257fe5b5080611afd57600080fd5b505115159695505050505050565b828054828255906000526020600020908101928215611b60579160200282015b82811115611b6057825182546001600160a01b0319166001600160a01b03909116178255602090920191600190910190611b2b565b50611b6c929150611c40565b5090565b6040805160e08101909152600060a0820181815260c0830191909152815260208101611b9a611bfd565b8152602001611ba7611bfd565b8152602001611bb4611bfd565b8152602001606081525090565b60405180606001604052806003906020820280368337509192915050565b60405180608001604052806004906020820280368337509192915050565b6040518060400160405280611c10611c55565b8152602001611c1d611c55565b905290565b60405180602001604052806001906020820280368337509192915050565b5b80821115611b6c5760008155600101611c41565b60405180604001604052806002906020820280368337509192915050565b80356001600160a01b0381168114611c8a57600080fd5b919050565b600060208284031215611ca157600080fd5b611caa82611c73565b9392505050565b634e487b7160e01b600052604160045260246000fd5b6040516060810167ffffffffffffffff81118282101715611cea57611cea611cb1565b60405290565b6040805190810167ffffffffffffffff81118282101715611cea57611cea611cb1565b600060408284031215611d2557600080fd5b6040516040810181811067ffffffffffffffff82111715611d4857611d48611cb1565b604052823581526020928301359281019290925250919050565b60006040516060810181811067ffffffffffffffff82111715611d8757611d87611cb1565b6040529050806060830184811115611d9e57600080fd5b835b81811015611db8578035835260209283019201611da0565b50505092915050565b600082601f830112611dd257600080fd5b611dda611cf0565b806040840185811115611dec57600080fd5b845b81811015611e06578035845260209384019301611dee565b509095945050505050565b600080828403610160811215611e2657600080fd5b61010080821215611e3657600080fd5b611e3e611cc7565b611e488787611d13565b81526080603f1984011215611e5c57600080fd5b611e64611cf0565b9250611e738760408801611dc1565b8352611e828760808801611dc1565b6020840152826020820152611e9a8760c08801611d13565b6040820152935061011f85018613611eb157600080fd5b611ebd86828701611d62565b925050509250929050565b600060208284031215611eda57600080fd5b5035919050565b6020808252825182820181905260009190848201906040850190845b81811015611f225783516001600160a01b031683529284019291840191600101611efd565b50909695505050505050565b60008060408385031215611f4157600080fd5b82359150611f5160208401611c73565b90509250929050565b60208082526026908201527f4f776e61626c653a206e6577206f776e657220697320746865207a65726f206160408201526564647265737360d01b606082015260800190565b634e487b7160e01b600052603260045260246000fd5b634e487b7160e01b600052601160045260246000fd5b600060018201611fde57611fde611fb6565b5060010190565b634e487b7160e01b600052601260045260246000fd5b60008261200a5761200a611fe5565b500690565b6000821982111561202257612022611fb6565b500190565b60008261203657612036611fe5565b500490565b6020808252602b908201527f496e697469616c697a61626c653a20636f6e7472616374206973206e6f74206960408201526a6e697469616c697a696e6760a81b606082015260800190565b60008282101561209857612098611fb6565b500390565b60008160001904831182151516156120b7576120b7611fb6565b50029056fea2646970667358221220ccba8cebd48e32fbe3e89b6075d68650aa448ae2909766b03e09cfb159b1969964736f6c634300080e0033",
  "devdoc": {
    "author": "eludius18",
    "kind": "dev",
    "methods": {
      "changeContractOwner(address)": {
        "params": {
          "newOwner": "new Owner Wallet"
        }
      },
      "changeDefaultMiniumPayment(uint256)": {
        "params": {
          "_newMiniumPayment": "new minium Payment"
        }
      },
      "changeSelectWinnerOwner(address)": {
        "params": {
          "_selectWinnerOwner": "new selectWinnerOwner"
        }
      },
      "owner()": {
        "details": "Returns the address of the current owner."
      },
      "renounceOwnership()": {
        "details": "Leaves the contract without owner. It will not be possible to call `onlyOwner` functions anymore. Can only be called by the current owner. NOTE: Renouncing ownership will leave the contract without an owner, thereby removing any functionality that is only available to the owner."
      },
      "transferOwnership(address)": {
        "details": "Transfers ownership of the contract to a new account (`newOwner`). Can only be called by the current owner."
      }
    },
    "title": "Lottery Smart Contract using block timestamp/difficulty as a source of randomness.",
    "version": 1
  },
  "userdoc": {
    "kind": "user",
    "methods": {
      "changeContractOwner(address)": {
        "notice": "Function to change the ownership of the Smart Contract"
      },
      "changeDefaultMiniumPayment(uint256)": {
        "notice": "Function OnlyOwner to change the minium investment defined in intilization"
      },
      "changeSelectWinnerOwner(address)": {
        "notice": "Change Oener of selectWinner function"
      },
      "enterLottery(((uint256,uint256),(uint256[2],uint256[2]),(uint256,uint256)),uint256[3])": {
        "notice": "Enter function to send ETH"
      },
      "getBalance()": {
        "notice": "Get funtion which returns total balance in lottery Smart Contract"
      },
      "getMiniumPayment()": {
        "notice": "Get funtion which returns MiniumPayment Value"
      },
      "getPlayers()": {
        "notice": "Get funtion which returns an array of players in current lottery"
      },
      "getSelectWinnerOwner()": {
        "notice": "Get funtion which returns select Winner function Owner"
      },
      "selectWinner()": {
        "notice": "Select function OnlyOwner to select Winner using GetRandom and tranfer amounto to winner"
      }
    },
    "notice": "This Smart Contract allow to enter ETH and takes prizes",
    "version": 1
  },
  "storageLayout": {
    "storage": [
      {
        "astId": 138,
        "contract": "contracts/Lottery.sol:Lottery",
        "label": "_initialized",
        "offset": 0,
        "slot": "0",
        "type": "t_uint8"
      },
      {
        "astId": 141,
        "contract": "contracts/Lottery.sol:Lottery",
        "label": "_initializing",
        "offset": 1,
        "slot": "0",
        "type": "t_bool"
      },
      {
        "astId": 698,
        "contract": "contracts/Lottery.sol:Lottery",
        "label": "__gap",
        "offset": 0,
        "slot": "1",
        "type": "t_array(t_uint256)50_storage"
      },
      {
        "astId": 10,
        "contract": "contracts/Lottery.sol:Lottery",
        "label": "_owner",
        "offset": 0,
        "slot": "51",
        "type": "t_address"
      },
      {
        "astId": 130,
        "contract": "contracts/Lottery.sol:Lottery",
        "label": "__gap",
        "offset": 0,
        "slot": "52",
        "type": "t_array(t_uint256)49_storage"
      },
      {
        "astId": 314,
        "contract": "contracts/Lottery.sol:Lottery",
        "label": "_status",
        "offset": 0,
        "slot": "101",
        "type": "t_uint256"
      },
      {
        "astId": 372,
        "contract": "contracts/Lottery.sol:Lottery",
        "label": "__gap",
        "offset": 0,
        "slot": "102",
        "type": "t_array(t_uint256)49_storage"
      },
      {
        "astId": 2168,
        "contract": "contracts/Lottery.sol:Lottery",
        "label": "_paused",
        "offset": 0,
        "slot": "151",
        "type": "t_bool"
      },
      {
        "astId": 2247,
        "contract": "contracts/Lottery.sol:Lottery",
        "label": "__gap",
        "offset": 0,
        "slot": "152",
        "type": "t_array(t_uint256)50_storage"
      },
      {
        "astId": 1783,
        "contract": "contracts/Lottery.sol:Lottery",
        "label": "players",
        "offset": 0,
        "slot": "202",
        "type": "t_array(t_address_payable)dyn_storage"
      },
      {
        "astId": 1785,
        "contract": "contracts/Lottery.sol:Lottery",
        "label": "miniumPayment",
        "offset": 0,
        "slot": "203",
        "type": "t_uint256"
      },
      {
        "astId": 1787,
        "contract": "contracts/Lottery.sol:Lottery",
        "label": "islotteryOngoing",
        "offset": 0,
        "slot": "204",
        "type": "t_bool"
      },
      {
        "astId": 1789,
        "contract": "contracts/Lottery.sol:Lottery",
        "label": "selectWinnerOwner",
        "offset": 1,
        "slot": "204",
        "type": "t_address"
      },
      {
        "astId": 1791,
        "contract": "contracts/Lottery.sol:Lottery",
        "label": "player",
        "offset": 0,
        "slot": "205",
        "type": "t_address"
      },
      {
        "astId": 1793,
        "contract": "contracts/Lottery.sol:Lottery",
        "label": "winner",
        "offset": 0,
        "slot": "206",
        "type": "t_address"
      },
      {
        "astId": 1795,
        "contract": "contracts/Lottery.sol:Lottery",
        "label": "value",
        "offset": 0,
        "slot": "207",
        "type": "t_uint256"
      },
      {
        "astId": 1797,
        "contract": "contracts/Lottery.sol:Lottery",
        "label": "totalQtyWon",
        "offset": 0,
        "slot": "208",
        "type": "t_uint256"
      }
    ],
    "types": {
      "t_address": {
        "encoding": "inplace",
        "label": "address",
        "numberOfBytes": "20"
      },
      "t_address_payable": {
        "encoding": "inplace",
        "label": "address payable",
        "numberOfBytes": "20"
      },
      "t_array(t_address_payable)dyn_storage": {
        "base": "t_address_payable",
        "encoding": "dynamic_array",
        "label": "address payable[]",
        "numberOfBytes": "32"
      },
      "t_array(t_uint256)49_storage": {
        "base": "t_uint256",
        "encoding": "inplace",
        "label": "uint256[49]",
        "numberOfBytes": "1568"
      },
      "t_array(t_uint256)50_storage": {
        "base": "t_uint256",
        "encoding": "inplace",
        "label": "uint256[50]",
        "numberOfBytes": "1600"
      },
      "t_bool": {
        "encoding": "inplace",
        "label": "bool",
        "numberOfBytes": "1"
      },
      "t_uint256": {
        "encoding": "inplace",
        "label": "uint256",
        "numberOfBytes": "32"
      },
      "t_uint8": {
        "encoding": "inplace",
        "label": "uint8",
        "numberOfBytes": "1"
      }
    }
  }
}