{
  "address": "0x627A616E95d291f04b769e485d21E1009EDD86D7",
  "abi": [
    {
      "inputs": [],
      "stateMutability": "nonpayable",
      "type": "constructor"
    },
    {
      "anonymous": false,
      "inputs": [
        {
          "indexed": false,
          "internalType": "uint8",
          "name": "version",
          "type": "uint8"
        }
      ],
      "name": "Initialized",
      "type": "event"
    },
    {
      "anonymous": false,
      "inputs": [
        {
          "indexed": true,
          "internalType": "address",
          "name": "previousOwner",
          "type": "address"
        },
        {
          "indexed": true,
          "internalType": "address",
          "name": "newOwner",
          "type": "address"
        }
      ],
      "name": "OwnershipTransferred",
      "type": "event"
    },
    {
      "anonymous": false,
      "inputs": [
        {
          "indexed": false,
          "internalType": "address",
          "name": "account",
          "type": "address"
        }
      ],
      "name": "Paused",
      "type": "event"
    },
    {
      "anonymous": false,
      "inputs": [
        {
          "indexed": false,
          "internalType": "address",
          "name": "account",
          "type": "address"
        }
      ],
      "name": "Unpaused",
      "type": "event"
    },
    {
      "anonymous": false,
      "inputs": [
        {
          "indexed": false,
          "internalType": "uint256",
          "name": "miniumPayment",
          "type": "uint256"
        }
      ],
      "name": "newMiniumPayment",
      "type": "event"
    },
    {
      "anonymous": false,
      "inputs": [
        {
          "indexed": false,
          "internalType": "address",
          "name": "player",
          "type": "address"
        },
        {
          "indexed": false,
          "internalType": "uint256",
          "name": "value",
          "type": "uint256"
        }
      ],
      "name": "newPlayer",
      "type": "event"
    },
    {
      "anonymous": false,
      "inputs": [
        {
          "indexed": false,
          "internalType": "address",
          "name": "selectWinnerOwner",
          "type": "address"
        }
      ],
      "name": "newselectWinnerOwner",
      "type": "event"
    },
    {
      "anonymous": false,
      "inputs": [
        {
          "indexed": false,
          "internalType": "address",
          "name": "winner",
          "type": "address"
        },
        {
          "indexed": false,
          "internalType": "uint256",
          "name": "totalQtyWon",
          "type": "uint256"
        }
      ],
      "name": "selectedWinner",
      "type": "event"
    },
    {
      "inputs": [
        {
          "internalType": "address",
          "name": "newOwner",
          "type": "address"
        }
      ],
      "name": "changeContractOwner",
      "outputs": [],
      "stateMutability": "nonpayable",
      "type": "function"
    },
    {
      "inputs": [
        {
          "internalType": "uint256",
          "name": "_newMiniumPayment",
          "type": "uint256"
        }
      ],
      "name": "changeDefaultMiniumPayment",
      "outputs": [],
      "stateMutability": "nonpayable",
      "type": "function"
    },
    {
      "inputs": [
        {
          "internalType": "address",
          "name": "_selectWinnerOwner",
          "type": "address"
        }
      ],
      "name": "changeSelectWinnerOwner",
      "outputs": [],
      "stateMutability": "nonpayable",
      "type": "function"
    },
    {
      "inputs": [
        {
          "components": [
            {
              "components": [
                {
                  "internalType": "uint256",
                  "name": "X",
                  "type": "uint256"
                },
                {
                  "internalType": "uint256",
                  "name": "Y",
                  "type": "uint256"
                }
              ],
              "internalType": "struct Pairing.G1Point",
              "name": "a",
              "type": "tuple"
            },
            {
              "components": [
                {
                  "internalType": "uint256[2]",
                  "name": "X",
                  "type": "uint256[2]"
                },
                {
                  "internalType": "uint256[2]",
                  "name": "Y",
                  "type": "uint256[2]"
                }
              ],
              "internalType": "struct Pairing.G2Point",
              "name": "b",
              "type": "tuple"
            },
            {
              "components": [
                {
                  "internalType": "uint256",
                  "name": "X",
                  "type": "uint256"
                },
                {
                  "internalType": "uint256",
                  "name": "Y",
                  "type": "uint256"
                }
              ],
              "internalType": "struct Pairing.G1Point",
              "name": "c",
              "type": "tuple"
            }
          ],
          "internalType": "struct Verifier.Proof",
          "name": "proof",
          "type": "tuple"
        },
        {
          "internalType": "uint256[2]",
          "name": "input",
          "type": "uint256[2]"
        }
      ],
      "name": "enterLottery",
      "outputs": [],
      "stateMutability": "payable",
      "type": "function"
    },
    {
      "inputs": [],
      "name": "getBalance",
      "outputs": [
        {
          "internalType": "uint256",
          "name": "",
          "type": "uint256"
        }
      ],
      "stateMutability": "view",
      "type": "function"
    },
    {
      "inputs": [],
      "name": "getMiniumPayment",
      "outputs": [
        {
          "internalType": "uint256",
          "name": "",
          "type": "uint256"
        }
      ],
      "stateMutability": "view",
      "type": "function"
    },
    {
      "inputs": [],
      "name": "getPlayers",
      "outputs": [
        {
          "internalType": "address payable[]",
          "name": "",
          "type": "address[]"
        }
      ],
      "stateMutability": "view",
      "type": "function"
    },
    {
      "inputs": [],
      "name": "getSelectWinnerOwner",
      "outputs": [
        {
          "internalType": "address",
          "name": "",
          "type": "address"
        }
      ],
      "stateMutability": "view",
      "type": "function"
    },
    {
      "inputs": [
        {
          "internalType": "uint256",
          "name": "_miniumPayment",
          "type": "uint256"
        },
        {
          "internalType": "address",
          "name": "_selectWinnerOwner",
          "type": "address"
        }
      ],
      "name": "initialize",
      "outputs": [],
      "stateMutability": "nonpayable",
      "type": "function"
    },
    {
      "inputs": [],
      "name": "islotteryOngoing",
      "outputs": [
        {
          "internalType": "bool",
          "name": "",
          "type": "bool"
        }
      ],
      "stateMutability": "view",
      "type": "function"
    },
    {
      "inputs": [],
      "name": "miniumPayment",
      "outputs": [
        {
          "internalType": "uint256",
          "name": "",
          "type": "uint256"
        }
      ],
      "stateMutability": "view",
      "type": "function"
    },
    {
      "inputs": [],
      "name": "owner",
      "outputs": [
        {
          "internalType": "address",
          "name": "",
          "type": "address"
        }
      ],
      "stateMutability": "view",
      "type": "function"
    },
    {
      "inputs": [],
      "name": "pause",
      "outputs": [],
      "stateMutability": "nonpayable",
      "type": "function"
    },
    {
      "inputs": [],
      "name": "paused",
      "outputs": [
        {
          "internalType": "bool",
          "name": "",
          "type": "bool"
        }
      ],
      "stateMutability": "view",
      "type": "function"
    },
    {
      "inputs": [],
      "name": "player",
      "outputs": [
        {
          "internalType": "address",
          "name": "",
          "type": "address"
        }
      ],
      "stateMutability": "view",
      "type": "function"
    },
    {
      "inputs": [
        {
          "internalType": "uint256",
          "name": "",
          "type": "uint256"
        }
      ],
      "name": "players",
      "outputs": [
        {
          "internalType": "address payable",
          "name": "",
          "type": "address"
        }
      ],
      "stateMutability": "view",
      "type": "function"
    },
    {
      "inputs": [],
      "name": "renounceOwnership",
      "outputs": [],
      "stateMutability": "nonpayable",
      "type": "function"
    },
    {
      "inputs": [],
      "name": "selectWinner",
      "outputs": [],
      "stateMutability": "nonpayable",
      "type": "function"
    },
    {
      "inputs": [],
      "name": "selectWinnerOwner",
      "outputs": [
        {
          "internalType": "address",
          "name": "",
          "type": "address"
        }
      ],
      "stateMutability": "view",
      "type": "function"
    },
    {
      "inputs": [],
      "name": "totalQtyWon",
      "outputs": [
        {
          "internalType": "uint256",
          "name": "",
          "type": "uint256"
        }
      ],
      "stateMutability": "view",
      "type": "function"
    },
    {
      "inputs": [
        {
          "internalType": "address",
          "name": "newOwner",
          "type": "address"
        }
      ],
      "name": "transferOwnership",
      "outputs": [],
      "stateMutability": "nonpayable",
      "type": "function"
    },
    {
      "inputs": [],
      "name": "unpause",
      "outputs": [],
      "stateMutability": "nonpayable",
      "type": "function"
    },
    {
      "inputs": [],
      "name": "value",
      "outputs": [
        {
          "internalType": "uint256",
          "name": "",
          "type": "uint256"
        }
      ],
      "stateMutability": "view",
      "type": "function"
    },
    {
      "inputs": [
        {
          "components": [
            {
              "components": [
                {
                  "internalType": "uint256",
                  "name": "X",
                  "type": "uint256"
                },
                {
                  "internalType": "uint256",
                  "name": "Y",
                  "type": "uint256"
                }
              ],
              "internalType": "struct Pairing.G1Point",
              "name": "a",
              "type": "tuple"
            },
            {
              "components": [
                {
                  "internalType": "uint256[2]",
                  "name": "X",
                  "type": "uint256[2]"
                },
                {
                  "internalType": "uint256[2]",
                  "name": "Y",
                  "type": "uint256[2]"
                }
              ],
              "internalType": "struct Pairing.G2Point",
              "name": "b",
              "type": "tuple"
            },
            {
              "components": [
                {
                  "internalType": "uint256",
                  "name": "X",
                  "type": "uint256"
                },
                {
                  "internalType": "uint256",
                  "name": "Y",
                  "type": "uint256"
                }
              ],
              "internalType": "struct Pairing.G1Point",
              "name": "c",
              "type": "tuple"
            }
          ],
          "internalType": "struct Verifier.Proof",
          "name": "proof",
          "type": "tuple"
        },
        {
          "internalType": "uint256[2]",
          "name": "input",
          "type": "uint256[2]"
        }
      ],
      "name": "verifyTx",
      "outputs": [
        {
          "internalType": "bool",
          "name": "r",
          "type": "bool"
        }
      ],
      "stateMutability": "view",
      "type": "function"
    },
    {
      "inputs": [],
      "name": "winner",
      "outputs": [
        {
          "internalType": "address",
          "name": "",
          "type": "address"
        }
      ],
      "stateMutability": "view",
      "type": "function"
    }
  ],
  "transactionHash": "0x859482344ed38c31afe8b34dea14c0668a181619812e4feee2911ba73f58c3ad",
  "args": [],
  "numDeployments": 1,
  "solcInputHash": "4b6ae1bdd8cf870880ba39cdd85c8614",
  "bytecode": "0x60806040523480156200001157600080fd5b506200001c6200002c565b620000266200002c565b620000ee565b600054610100900460ff1615620000995760405162461bcd60e51b815260206004820152602760248201527f496e697469616c697a61626c653a20636f6e747261637420697320696e697469604482015266616c697a696e6760c81b606482015260840160405180910390fd5b60005460ff9081161015620000ec576000805460ff191660ff9081179091556040519081527f7f26b83ff96e1f2b6a682f133852f6798a09c465da95921460cefb38474024989060200160405180910390a15b565b61200780620000fe6000396000f3fe6080604052600436106101665760003560e01c80635c975abb116100d15780639d1dc0801161008a578063dfbf53ae11610064578063dfbf53ae146103d5578063e4e38090146103f5578063f2fde38b1461040b578063f71d96cb1461042b57600080fd5b80639d1dc08014610386578063ae9652fd1461039b578063da35a26f146103b557600080fd5b80635c975abb146102df5780636951893d146102f7578063715018a61461031c5780638456cb59146103315780638b5b9ccc146103465780638da5cb5b1461036857600080fd5b806333a99e041161012357806333a99e041461022f5780633ead67b5146102445780633f4ba83a146102645780633fa4f2451461027957806343cd76fc1461028f57806348db5f89146102bf57600080fd5b806307762eb31461016b57806309faa76d1461018d57806312065fe0146101a05780631211980b146101c257806314d93b5c146101f95780631c8015ab14610219575b600080fd5b34801561017757600080fd5b5061018b610186366004611c18565b61044b565b005b61018b61019b366004611d18565b6104e2565b3480156101ac57600080fd5b50475b6040519081526020015b60405180910390f35b3480156101ce57600080fd5b5060cc5461010090046001600160a01b03165b6040516001600160a01b0390911681526020016101b9565b34801561020557600080fd5b5061018b610214366004611ddd565b610714565b34801561022557600080fd5b506101af60d05481565b34801561023b57600080fd5b5061018b6107ad565b34801561025057600080fd5b5061018b61025f366004611c18565b610965565b34801561027057600080fd5b5061018b61099f565b34801561028557600080fd5b506101af60cf5481565b34801561029b57600080fd5b506102af6102aa366004611d18565b6109e7565b60405190151581526020016101b9565b3480156102cb57600080fd5b5060cd546101e1906001600160a01b031681565b3480156102eb57600080fd5b5060975460ff166102af565b34801561030357600080fd5b5060cc546101e19061010090046001600160a01b031681565b34801561032857600080fd5b5061018b610a86565b34801561033d57600080fd5b5061018b610a9a565b34801561035257600080fd5b5061035b610ae7565b6040516101b99190611df6565b34801561037457600080fd5b506033546001600160a01b03166101e1565b34801561039257600080fd5b5060cb546101af565b3480156103a757600080fd5b5060cc546102af9060ff1681565b3480156103c157600080fd5b5061018b6103d0366004611e43565b610b49565b3480156103e157600080fd5b5060ce546101e1906001600160a01b031681565b34801561040157600080fd5b506101af60cb5481565b34801561041757600080fd5b5061018b610426366004611c18565b610c91565b34801561043757600080fd5b506101e1610446366004611ddd565b610cc8565b610453610cf2565b6001600160a01b0381166104825760405162461bcd60e51b815260040161047990611e6f565b60405180910390fd5b60cc8054610100600160a81b0319166101006001600160a01b038481168202929092179283905560405192041681527fd19a97ac2a3a7bf368d0fcb97a05863922352067674e65a1e59bc0e06dfca09b906020015b60405180910390a150565b6104ea610d4c565b6104f2610da5565b33321461052c5760405162461bcd60e51b81526020600482015260086024820152674f6e6c7920454f4160c01b6044820152606401610479565b6000341161058d5760405162461bcd60e51b815260206004820152602860248201527f596f75206d7573742073656e6420457468657220746f20656e74657220746865604482015267206c6f747465727960c01b6064820152608401610479565b60cb543410156105ed5760405162461bcd60e51b815260206004820152602560248201527f596f75206d7573742073656e642061204d696e69756d20616d6f7574206f662060448201526422ba3432b960d91b6064820152608401610479565b60cc5460ff166106335760405162461bcd60e51b8152602060048201526011602482015270131bdd1d195c9e481a185cc8195b991959607a1b6044820152606401610479565b61063d82826109e7565b6106895760405162461bcd60e51b815260206004820152601d60248201527f4d757374206265206174206c65617374203138207965617273206f6c640000006044820152606401610479565b60ca80546001810182556000919091527f42d72674974f694b5f5159593243114d38a5c39c89d6b62fee061ff523240ee10180546001600160a01b03191633908117909155604080519182523460208301527f4222113ad602ab085918ce130c46367c8d7ea76f6710b09d0d47c28a3f9598f4910160405180910390a16107106001606555565b5050565b61071c610cf2565b806000036107785760405162461bcd60e51b8152602060048201526024808201527f4e6577204d696e69756d205061796d656e742073686f756c64206265207570206044820152630746f20360e41b6064820152608401610479565b60cb8190556040518181527f5eb22d91ccf194eaee9b7840523dae1cb9b65cd0f70bb6f923dbe59fc9bfe64f906020016104d7565b60cc54339061010090046001600160a01b031681146108075760405162461bcd60e51b815260206004820152601660248201527527b7363c9039b2b632b1ba2bb4b73732b927bbb732b960511b6044820152606401610479565b60cc805460ff1916905560ca5460009061081f610deb565b6108299190611ecb565b9050600060ca828154811061084057610840611edf565b600091825260208083209190910154604080519384529183019182905291516001600160a01b0390921692506108799160ca9190611a94565b506000816001600160a01b03164760405160006040518083038185875af1925050503d80600081146108c7576040519150601f19603f3d011682016040523d82523d6000602084013e6108cc565b606091505b50509050806109115760405162461bcd60e51b815260206004820152601160248201527032b93937b91039b2b73234b7339021272160791b6044820152606401610479565b60cc805460ff19166001179055604080516001600160a01b03841681524760208201527fc56976101695147e6beb312e8b21eab74ee87e4f73867aa5e47c9c2ef1e1fc0d910160405180910390a150505050565b61096d610cf2565b6001600160a01b0381166109935760405162461bcd60e51b815260040161047990611e6f565b61099c81610c91565b50565b6109a7610cf2565b6097805460ff191690556040513381527f5db9ee0a495bf2e6ff9c91a7834c1ba4fdd244a5e8aa4e537bd38aeae4b073aa906020015b60405180910390a1565b6040805160028082526060820183526000928392919060208301908036833701905050905060005b6002811015610a5e57838160028110610a2a57610a2a611edf565b6020020151828281518110610a4157610a41611edf565b602090810291909101015280610a5681611f0b565b915050610a0f565b50610a698185610e2c565b600003610a7a576001915050610a80565b60009150505b92915050565b610a8e610cf2565b610a986000610faf565b565b610aa2610cf2565b610aaa610da5565b6097805460ff191660011790556040513381527f62e78cea01bee320cd4e420270b5ea74000d11b0c9f74754ebdbfc544b05a258906020016109dd565b606060ca805480602002602001604051908101604052809291908181526020018280548015610b3f57602002820191906000526020600020905b81546001600160a01b03168152600190910190602001808311610b21575b5050505050905090565b600054610100900460ff1615808015610b695750600054600160ff909116105b80610b835750303b158015610b83575060005460ff166001145b610be65760405162461bcd60e51b815260206004820152602e60248201527f496e697469616c697a61626c653a20636f6e747261637420697320616c72656160448201526d191e481a5b9a5d1a585b1a5e995960921b6064820152608401610479565b6000805460ff191660011790558015610c09576000805461ff0019166101001790555b60cb83905560cc805460ff196001600160a01b03851661010002166001600160a81b0319909116176001179055610c3e611001565b610c46611030565b8015610c8c576000805461ff0019169055604051600181527f7f26b83ff96e1f2b6a682f133852f6798a09c465da95921460cefb38474024989060200160405180910390a15b505050565b610c99610cf2565b6001600160a01b038116610cbf5760405162461bcd60e51b815260040161047990611e6f565b61099c81610faf565b60ca8181548110610cd857600080fd5b6000918252602090912001546001600160a01b0316905081565b6033546001600160a01b03163314610a985760405162461bcd60e51b815260206004820181905260248201527f4f776e61626c653a2063616c6c6572206973206e6f7420746865206f776e65726044820152606401610479565b600260655403610d9e5760405162461bcd60e51b815260206004820152601f60248201527f5265656e7472616e637947756172643a207265656e7472616e742063616c6c006044820152606401610479565b6002606555565b60975460ff1615610a985760405162461bcd60e51b815260206004820152601060248201526f14185d5cd8589b194e881c185d5cd95960821b6044820152606401610479565b600080610df84442611f24565b905080604051602001610e0d91815260200190565b6040516020818303038152906040528051906020012060001c91505090565b60007f30644e72e131a029b85045b68181585d2833e84879b9709143e1f593f000000181610e5861105f565b905080608001515185516001610e6e9190611f38565b14610e7857600080fd5b604080518082019091526000808252602082018190525b8651811015610f265783878281518110610eab57610eab611edf565b602002602001015110610ebd57600080fd5b610f1282610f0d8560800151846001610ed69190611f38565b81518110610ee657610ee6611edf565b60200260200101518a8581518110610f0057610f00611edf565b6020026020010151611472565b6114d0565b915080610f1e81611f0b565b915050610e8f565b50610f4f818360800151600081518110610f4257610f42611edf565b60200260200101516114d0565b9050610f9385600001518660200151610f6784611526565b8560400151610f798a60400151611526565b60608801518851610f8990611526565b89602001516115c5565b610fa35760019350505050610a80565b50600095945050505050565b603380546001600160a01b038381166001600160a01b0319831681179093556040519116919082907f8be0079c531659141344cd1fd0a4f28419497f9722a3daafe3b4186f6b6457e090600090a35050565b600054610100900460ff166110285760405162461bcd60e51b815260040161047990611f50565b610a98611750565b600054610100900460ff166110575760405162461bcd60e51b815260040161047990611f50565b610a98611780565b611067611af9565b6040805180820182527f1c3179ae0b10209c120c3bca8a7966d5b02ad2a1facd1e5c719fd57b893eb1cf81527f1cb3fc2d8c91111880222d161fc8b14bbc7f3b1ea2c0a7dc528d29cb3c6261ac6020808301919091529083528151608080820184527f1d2a54c0cddaacdf845456432889b5510779f94226750ffa459d0bd4be343d878285019081527f1820eb46a3b8cb22b637bd332b9187bc62a9ba0bc025957185436714186e149e606080850191909152908352845180860186527f16c934469be9105975f2e1f8571b1922e118186e126e604367757809b5d228cc81527f09c17f1185893529be3811d00601394024f544d2db9f8e99266c4ae9cd7400f5818601528385015285840192909252835180820185527f2fff91262bdeaf4a46b009a974dc89e8637b2e4b98bcb1583b0d8b2e70446a6e8186019081527f0c3dfd3654779587af42594cfac6ba700f7561bc0664266ea32aab4d6792c2d9828501528152845180860186527f2775989ae182d77fd3755ac391c2770a2edd3a0337bb0595ceb5c9fa406da6b281527f2f9d55d45f949cdada7b4a656de132465daa8a98d38571773e4ea3fb8d6e09c1818601528185015285850152835180820185527f2827aced24e459272d8c04ae7b51d5531952fc9e8e7848832c81b9cc4a711a3e8186019081527f22e37d4a7fa28ce5d5f73fddc9f2b769430f766a6bb123c03e6d5da734cbc0ff828501528152845180860186527f2b1ba9afb869305956ca9b93d37f6cc2a0aa015c4ad3328ec02773a93767899081527f225bb6bf633db9dad510b78c4989d5a44902b21f1619bcedba0b52fee3b256f9818601528185015291850191909152825160038082529181019093529082015b60408051808201909152600080825260208201528152602001906001900390816112e357505060808201908152604080518082019091527f27a2d8084a2da25c7d83d6b1eea9c40e0480ef9c47466aa1559e13b28ff3fc5b81527f1ffc51bd04bf016485645ae6dbd1428d8102013f38bb4e04db86b9220a88c6eb60208201529051805160009061137657611376611edf565b602002602001018190525060405180604001604052807f151a5e0b8318ff5aadf23a7f884a1ce821caa116a5b58c9a95eda20c2861f23c81526020017f13847fbd3b4abc647f4e0c379b81e3793ef54d3fdd101d312ba305f30860336981525081608001516001815181106113ed576113ed611edf565b602002602001018190525060405180604001604052807f26c845f2dbf31e5fd5fe69caaf26e424427d6b1d3c297d523961b37b5598c05781526020017f19fd7bf7a1eedafa347135f96fdf46a2df831ea380cc87dd1bfa5868409a5905815250816080015160028151811061146457611464611edf565b602002602001018190525090565b604080518082019091526000808252602082015261148e611b4a565b835181526020808501519082015260408101839052600060608360808460076107d05a03fa905080806114bd57fe5b50806114c857600080fd5b505092915050565b60408051808201909152600080825260208201526114ec611b68565b8351815260208085015181830152835160408301528301516060808301919091526000908360c08460066107d05a03fa905080806114bd57fe5b604080518082019091526000808252602082015281517f30644e72e131a029b85045b68181585d97816a916871ca8d3c208c16d87cfd479015801561156d57506020830151155b1561158d5750506040805180820190915260008082526020820152919050565b6040518060400160405280846000015181526020018285602001516115b29190611ecb565b6115bc9084611f9b565b90529392505050565b60408051600480825260a08201909252600091829190816020015b60408051808201909152600080825260208201528152602001906001900390816115e057505060408051600480825260a0820190925291925060009190602082015b61162a611b86565b8152602001906001900390816116225790505090508a8260008151811061165357611653611edf565b6020026020010181905250888260018151811061167257611672611edf565b6020026020010181905250868260028151811061169157611691611edf565b602002602001018190525084826003815181106116b0576116b0611edf565b602002602001018190525089816000815181106116cf576116cf611edf565b602002602001018190525087816001815181106116ee576116ee611edf565b6020026020010181905250858160028151811061170d5761170d611edf565b6020026020010181905250838160038151811061172c5761172c611edf565b602002602001018190525061174182826117b3565b9b9a5050505050505050505050565b600054610100900460ff166117775760405162461bcd60e51b815260040161047990611f50565b610a9833610faf565b600054610100900460ff166117a75760405162461bcd60e51b815260040161047990611f50565b6097805460ff19169055565b600081518351146117c357600080fd5b825160006117d2826006611fb2565b905060008167ffffffffffffffff8111156117ef576117ef611c3a565b604051908082528060200260200182016040528015611818578160200160208202803683370190505b50905060005b83811015611a535786818151811061183857611838611edf565b602002602001015160000151828260066118529190611fb2565b61185d906000611f38565b8151811061186d5761186d611edf565b60200260200101818152505086818151811061188b5761188b611edf565b602002602001015160200151828260066118a59190611fb2565b6118b0906001611f38565b815181106118c0576118c0611edf565b6020026020010181815250508581815181106118de576118de611edf565b602090810291909101810151510151826118f9836006611fb2565b611904906002611f38565b8151811061191457611914611edf565b60200260200101818152505085818151811061193257611932611edf565b602090810291909101015151518261194b836006611fb2565b611956906003611f38565b8151811061196657611966611edf565b60200260200101818152505085818151811061198457611984611edf565b6020026020010151602001516001600281106119a2576119a2611edf565b6020020151826119b3836006611fb2565b6119be906004611f38565b815181106119ce576119ce611edf565b6020026020010181815250508581815181106119ec576119ec611edf565b602002602001015160200151600060028110611a0a57611a0a611edf565b602002015182611a1b836006611fb2565b611a26906005611f38565b81518110611a3657611a36611edf565b602090810291909101015280611a4b81611f0b565b91505061181e565b50611a5c611bab565b6000602082602086026020860160086107d05a03fa90508080611a7b57fe5b5080611a8657600080fd5b505115159695505050505050565b828054828255906000526020600020908101928215611ae9579160200282015b82811115611ae957825182546001600160a01b0319166001600160a01b03909116178255602090920191600190910190611ab4565b50611af5929150611bc9565b5090565b6040805160e08101909152600060a0820181815260c0830191909152815260208101611b23611b86565b8152602001611b30611b86565b8152602001611b3d611b86565b8152602001606081525090565b60405180606001604052806003906020820280368337509192915050565b60405180608001604052806004906020820280368337509192915050565b6040518060400160405280611b99611bde565b8152602001611ba6611bde565b905290565b60405180602001604052806001906020820280368337509192915050565b5b80821115611af55760008155600101611bca565b60405180604001604052806002906020820280368337509192915050565b80356001600160a01b0381168114611c1357600080fd5b919050565b600060208284031215611c2a57600080fd5b611c3382611bfc565b9392505050565b634e487b7160e01b600052604160045260246000fd5b6040805190810167ffffffffffffffff81118282101715611c7357611c73611c3a565b60405290565b600060408284031215611c8b57600080fd5b6040516040810181811067ffffffffffffffff82111715611cae57611cae611c3a565b604052823581526020928301359281019290925250919050565b600082601f830112611cd957600080fd5b611ce1611c50565b806040840185811115611cf357600080fd5b845b81811015611d0d578035845260209384019301611cf5565b509095945050505050565b600080828403610140811215611d2d57600080fd5b61010080821215611d3d57600080fd5b6040516060810181811067ffffffffffffffff82111715611d6057611d60611c3a565b604052611d6d8787611c79565b81526080603f1984011215611d8157600080fd5b611d89611c50565b9250611d988760408801611cc8565b8352611da78760808801611cc8565b6020840152826020820152611dbf8760c08801611c79565b60408201529350611dd286868301611cc8565b925050509250929050565b600060208284031215611def57600080fd5b5035919050565b6020808252825182820181905260009190848201906040850190845b81811015611e375783516001600160a01b031683529284019291840191600101611e12565b50909695505050505050565b60008060408385031215611e5657600080fd5b82359150611e6660208401611bfc565b90509250929050565b60208082526026908201527f4f776e61626c653a206e6577206f776e657220697320746865207a65726f206160408201526564647265737360d01b606082015260800190565b634e487b7160e01b600052601260045260246000fd5b600082611eda57611eda611eb5565b500690565b634e487b7160e01b600052603260045260246000fd5b634e487b7160e01b600052601160045260246000fd5b600060018201611f1d57611f1d611ef5565b5060010190565b600082611f3357611f33611eb5565b500490565b60008219821115611f4b57611f4b611ef5565b500190565b6020808252602b908201527f496e697469616c697a61626c653a20636f6e7472616374206973206e6f74206960408201526a6e697469616c697a696e6760a81b606082015260800190565b600082821015611fad57611fad611ef5565b500390565b6000816000190483118215151615611fcc57611fcc611ef5565b50029056fea26469706673582212205bbd3adb7cd69519b6235065b9b16b5895472d03e2380738fcf668f2a0df4f9264736f6c634300080e0033",
  "devdoc": {
    "author": "eludius18",
    "kind": "dev",
    "methods": {
      "changeContractOwner(address)": {
        "params": {
          "newOwner": "new Owner Wallet"
        }
      },
      "changeDefaultMiniumPayment(uint256)": {
        "params": {
          "_newMiniumPayment": "new minium Payment"
        }
      },
      "changeSelectWinnerOwner(address)": {
        "params": {
          "_selectWinnerOwner": "new selectWinnerOwner"
        }
      },
      "owner()": {
        "details": "Returns the address of the current owner."
      },
      "renounceOwnership()": {
        "details": "Leaves the contract without owner. It will not be possible to call `onlyOwner` functions anymore. Can only be called by the current owner. NOTE: Renouncing ownership will leave the contract without an owner, thereby removing any functionality that is only available to the owner."
      },
      "transferOwnership(address)": {
        "details": "Transfers ownership of the contract to a new account (`newOwner`). Can only be called by the current owner."
      }
    },
    "title": "Lottery Smart Contract using block timestamp/difficulty as a source of randomness.",
    "version": 1
  },
  "userdoc": {
    "kind": "user",
    "methods": {
      "changeContractOwner(address)": {
        "notice": "Function to change the ownership of the Smart Contract"
      },
      "changeDefaultMiniumPayment(uint256)": {
        "notice": "Function OnlyOwner to change the minium investment defined in intilization"
      },
      "changeSelectWinnerOwner(address)": {
        "notice": "Change Oener of selectWinner function"
      },
      "enterLottery(((uint256,uint256),(uint256[2],uint256[2]),(uint256,uint256)),uint256[2])": {
        "notice": "Enter function to send ETH"
      },
      "getBalance()": {
        "notice": "Get funtion which returns total balance in lottery Smart Contract"
      },
      "getMiniumPayment()": {
        "notice": "Get funtion which returns MiniumPayment Value"
      },
      "getPlayers()": {
        "notice": "Get funtion which returns an array of players in current lottery"
      },
      "getSelectWinnerOwner()": {
        "notice": "Get funtion which returns select Winner function Owner"
      },
      "selectWinner()": {
        "notice": "Select function OnlyOwner to select Winner using GetRandom and tranfer amounto to winner"
      }
    },
    "notice": "This Smart Contract allow to enter ETH and takes prizes",
    "version": 1
  },
  "storageLayout": {
    "storage": [
      {
        "astId": 138,
        "contract": "contracts/Lottery.sol:Lottery",
        "label": "_initialized",
        "offset": 0,
        "slot": "0",
        "type": "t_uint8"
      },
      {
        "astId": 141,
        "contract": "contracts/Lottery.sol:Lottery",
        "label": "_initializing",
        "offset": 1,
        "slot": "0",
        "type": "t_bool"
      },
      {
        "astId": 698,
        "contract": "contracts/Lottery.sol:Lottery",
        "label": "__gap",
        "offset": 0,
        "slot": "1",
        "type": "t_array(t_uint256)50_storage"
      },
      {
        "astId": 10,
        "contract": "contracts/Lottery.sol:Lottery",
        "label": "_owner",
        "offset": 0,
        "slot": "51",
        "type": "t_address"
      },
      {
        "astId": 130,
        "contract": "contracts/Lottery.sol:Lottery",
        "label": "__gap",
        "offset": 0,
        "slot": "52",
        "type": "t_array(t_uint256)49_storage"
      },
      {
        "astId": 314,
        "contract": "contracts/Lottery.sol:Lottery",
        "label": "_status",
        "offset": 0,
        "slot": "101",
        "type": "t_uint256"
      },
      {
        "astId": 372,
        "contract": "contracts/Lottery.sol:Lottery",
        "label": "__gap",
        "offset": 0,
        "slot": "102",
        "type": "t_array(t_uint256)49_storage"
      },
      {
        "astId": 2150,
        "contract": "contracts/Lottery.sol:Lottery",
        "label": "_paused",
        "offset": 0,
        "slot": "151",
        "type": "t_bool"
      },
      {
        "astId": 2229,
        "contract": "contracts/Lottery.sol:Lottery",
        "label": "__gap",
        "offset": 0,
        "slot": "152",
        "type": "t_array(t_uint256)50_storage"
      },
      {
        "astId": 1765,
        "contract": "contracts/Lottery.sol:Lottery",
        "label": "players",
        "offset": 0,
        "slot": "202",
        "type": "t_array(t_address_payable)dyn_storage"
      },
      {
        "astId": 1767,
        "contract": "contracts/Lottery.sol:Lottery",
        "label": "miniumPayment",
        "offset": 0,
        "slot": "203",
        "type": "t_uint256"
      },
      {
        "astId": 1769,
        "contract": "contracts/Lottery.sol:Lottery",
        "label": "islotteryOngoing",
        "offset": 0,
        "slot": "204",
        "type": "t_bool"
      },
      {
        "astId": 1771,
        "contract": "contracts/Lottery.sol:Lottery",
        "label": "selectWinnerOwner",
        "offset": 1,
        "slot": "204",
        "type": "t_address"
      },
      {
        "astId": 1773,
        "contract": "contracts/Lottery.sol:Lottery",
        "label": "player",
        "offset": 0,
        "slot": "205",
        "type": "t_address"
      },
      {
        "astId": 1775,
        "contract": "contracts/Lottery.sol:Lottery",
        "label": "winner",
        "offset": 0,
        "slot": "206",
        "type": "t_address"
      },
      {
        "astId": 1777,
        "contract": "contracts/Lottery.sol:Lottery",
        "label": "value",
        "offset": 0,
        "slot": "207",
        "type": "t_uint256"
      },
      {
        "astId": 1779,
        "contract": "contracts/Lottery.sol:Lottery",
        "label": "totalQtyWon",
        "offset": 0,
        "slot": "208",
        "type": "t_uint256"
      }
    ],
    "types": {
      "t_address": {
        "encoding": "inplace",
        "label": "address",
        "numberOfBytes": "20"
      },
      "t_address_payable": {
        "encoding": "inplace",
        "label": "address payable",
        "numberOfBytes": "20"
      },
      "t_array(t_address_payable)dyn_storage": {
        "base": "t_address_payable",
        "encoding": "dynamic_array",
        "label": "address payable[]",
        "numberOfBytes": "32"
      },
      "t_array(t_uint256)49_storage": {
        "base": "t_uint256",
        "encoding": "inplace",
        "label": "uint256[49]",
        "numberOfBytes": "1568"
      },
      "t_array(t_uint256)50_storage": {
        "base": "t_uint256",
        "encoding": "inplace",
        "label": "uint256[50]",
        "numberOfBytes": "1600"
      },
      "t_bool": {
        "encoding": "inplace",
        "label": "bool",
        "numberOfBytes": "1"
      },
      "t_uint256": {
        "encoding": "inplace",
        "label": "uint256",
        "numberOfBytes": "32"
      },
      "t_uint8": {
        "encoding": "inplace",
        "label": "uint8",
        "numberOfBytes": "1"
      }
    }
  }
}